:100000000C9491040C94AE040C94AE040C94AE04C5
:100010000C94AE040C94AE040C94AE040C94AE0498
:100020000C94AE040C94AE040C94AE040C94AE0488
:100030000C94AE040C94AE040C94AE040C94AE0478
:100040000C94AE040C94AE040C94AE040C94AE0468
:100050000C94AE040C94AE040C94AE040C94AE0458
:100060000C94AE040C94AE04FFFFDFFFFFFFFFFF14
:10007000FFFFFFFFFFFFEFFFFFFFFFFFFFFFEFFFB0
:10008000FFFFFFFFFFDFFFFFFFFFFFFFFFFFFFFFA0
:100090007FFFF7F7FFFFFFFFEFFFFFFFFFFFFFFF10
:1000A000FFFFBFFFFFFFFFFFFFFFFFFFFFFFFFEFB0
:1000B000FFFFFFFFFFFFF7FFFFFFFFFFFFFFFFFF58
:1000C000FFFFFFFFFFFFFBFF7FFFFFFFFFFFFFFFC4
:1000D000FFFFFF3F1F1F5F1F1F3FFF1F1F1FDF1F70
:1000E0001F3FFF1F1F1F1FFFFFFF1F1FDFDF1F1F00
:1000F000FFFF1F1FDFDFFFEFEFFFFFFFFFFFFFFF30
:10010000FFFFFFFFFFFFFFEFFFFFFFFFFFFBFFFF13
:10011000FFFFFFFFDFFFFFFFFFFFFFFFFFFFFFFF0F
:10012000FFFFFFFBFBFFFFF3F2E2E6E4E0F1FFE09D
:10013000E0E0FCFCFCFEE7E0F2F2E0E4FFFFF0E0D0
:10014000E7E7E1F1FFFFE0E0E6E6EFFFFFF7FFFFA3
:10015000FFFFFFFFFDFFFFFFFFFFFFFFFFFFFFFFB1
:10016000FFFFFFFFFFFFFFFFFFFFFFFFF7FFFFFFA7
:10017000FFFF010101FFFF0101C30101FFF90101BF
:100180007F0101F97F012121010FFFFF01017D7D29
:100190000101FFFF01016D6DFFFF0101ED0101FF95
:1001A000FF3121654D41111FFFFFFFFFFFFEFFFFE4
:1001B000FFFFFFFFFFBFFFFFFFFFFFFFFFBFFFFFCF
:1001C000FFFFFFFFFFFF3E0E0E1F3FFEFEFFFEFE86
:1001D0007E1F3F3E1E1E7FFFFEFEFF7FBE1E9F7FD7
:1001E000FEFEFEFE7E1E3F3F1E7EFEFEFEFF3E0E1C
:1001F0000F1E3EFFFFFFFE7E9E1EBE7FFFFFDFFF46
:10020000FFFFFFFFFFFFEFFFFFFFFFFFFFFFFFFF0E
:10021000FFFFFFFFEFFFFFFFFFFFF8F8FCF8FAFF1B
:10022000FFFFFFFCFEF8BCFEF8FAFCFFFFFFFFFD3E
:10023000FCFCFCFCFFFFFFFCFAF8FEFEF8FEFCFFF6
:10024000FFFFF8F8FCF8F8FFFFFFFFFCFCFCFCFDEB
:10025000FFFFFFFFFFFFBFFFFFFFFFFFFFFFFFFFEE
:100260000E182D0D0000000000000000000000002E
:10027000000000001038383838383838381000009E
:10028000000000000000000000000000000000006E
:10029000000000000000000000000000000000005E
:1002A000000000000000000000000000000000400E
:1002B000E0E0400000000000000002060E0E0E0EFE
:1002C0000E0E060200000000103838383838383872
:1002D00038100000000080C0E0E0E0E0E0E0C08016
:1002E000000000FCFAF60E0E0E0E0E0EF6FAFC00E2
:1002F00000EFC78300000000000083C7EF00007F0D
:10030000BFDFE0E0E0E0E0E0DFBF7F0000000000F2
:10031000000000000000F0F8FC00000000000000F9
:100320000000000083C7EF00000000000000000094
:1003300000001F3F7F00000002060E0E0E0E0E0E84
:10034000F6FAFC0000E0D0B83838383838383B17B7
:100350000F00007FBFDFE0E0E0E0E0E0C0800000F1
:10036000000002060E0E0E0E0E0EF6FAFC00000045
:100370001038383838383838BBD7EF00000080C024
:10038000E0E0E0E0E0E0DFBF7F0000FCF8F000002C
:1003900000000000F0F8FC00000F173B3838383838
:1003A0003838BBD7EF00000000000000000000005C
:1003B0001F3F7F0000FCFAF60E0E0E0E0E0E060218
:1003C0000000000F173B383838383838B8D0E00014
:1003D000000080C0E0E0E0E0E0E0DFBF7F0000FC84
:1003E000FAF60E0E0E0E0E0E0602000000EFD7BB40
:1003F000383838383838B8D0E000007FBFDFE0E068
:10040000E0E0E0E0DFBF7F00000002060E0E0E0E0F
:100410000E0EF6FAFC0000000000000000000000D4
:1004200083C7EF00000000000000000000001F3F35
:100430007F0000FCFAF60E0E0E0E0E0EF6FAFC0011
:1004400000EFD7BB383838383838BBD7EF00007FDB
:10045000BFDFE0E0E0E0E0E0DFBF7F0000FCFAF6B5
:100460000E0E0E0E0E0EF6FAFC00000F173B38387B
:1004700038383838BBD7EF00000080C0E0E0E0E05B
:10048000E0E0DFBF7F000C102D0D000000808080B9
:1004900080808000000000000103030303030301C8
:1004A000000000000000000000000000000000004C
:1004B000000000C0C0000000000000000286868628
:1004C000868686020000000081C3C3C3C3C3C38104
:1004D000000000FC7A0606060606067AFC00007E8E
:1004E000BCC0C0C0C0C0C0BC7E0000000000000096
:1004F00000000078FC000000000000000000003C4C
:100500007E000000028686868686867AFC00007E53
:10051000BDC3C3C3C3C3C381000000000286868677
:100520008686867AFC00000081C3C3C3C3C3C3BDF3
:100530007E0000FC7880808080808078FC00000055
:10054000010303030303033D7E0000FC7A868686D5
:10055000868686020000000081C3C3C3C3C3C3BD37
:100560007E0000FC7A868686868686020000007EF3
:10057000BDC3C3C3C3C3C3BD7E00000002060606DD
:100580000606067AFC000000000000000000003CA7
:100590007E0000FC7A8686868686867AFC00007E4F
:1005A000BDC3C3C3C3C3C3BD7E0000FC7A868686B9
:1005B0008686867AFC00000081C3C3C3C3C3C3BD63
:1005C0007E000608205F0000000000000000002FF1
:1005D000000000000700070000147F147F140024AF
:1005E0002A7F2A12002313086462003649552250DC
:1005F00000000503000000001C2241000000412211
:100600001C000014083E08140008083E08080000FA
:1006100000A06000000808080808000060600000F2
:10062000002010080402003E5149453E0000427F70
:100630004000004261514946002141454B310018BC
:1006400014127F10002745454539003C4A4949307E
:100650000001710905030036494949360006494938
:10066000291E000036360000000056360000000843
:100670001422410000141414141400004122140820
:1006800000020151090600324959513E007C121105
:10069000127C007F49494936003E41414122007F9A
:1006A0004141221C007F49494941007F0909090154
:1006B000003E4149497A007F0808087F0000417FD9
:1006C0004100002040413F01007F08142241007F8B
:1006D00040404040007F020C027F007F0408107FF2
:1006E000003E4141413E007F09090906003E41515B
:1006F000215E007F09192946004649494931000118
:10070000017F0101003F4040403F001F2040201F6B
:10071000003F4038403F006314081463000708702E
:10072000080700615149454300007F414100AA5537
:10073000AA55AA55000041417F00000402010204AD
:100740000040404040400000030500000020545499
:100750005478007F484444380038444444200038EA
:100760004444487F00385454541800087E0901025C
:100770000018A4A4A47C007F080404780000447D31
:100780004000004080847D00007F1028440000006D
:10079000417F4000007C04180478007C0804047841
:1007A00000384444443800FC24242418001824242D
:1007B00018FC007C08040408004854545420000429
:1007C0003F444020003C4040207C001C2040201C36
:1007D000003C4030403C004428102844001CA0A0AD
:1007E000A07C004464544C440000107C8200000053
:1007F00000FF00000000827C1000000006090906CE
:100800000406205F00000003A000C00C00F94F8028
:100810006BEB00988C8052A58003000001C8808992
:10082000C00050850021C200084000208200002046
:1008300000188C00FA2F804BE0805A66808AA50051
:10084000E08F80EAAB0072A9009A8C00FAAF804A70
:10085000A70001400009400021488051450089421D
:100860000042660072A6807A8780FAA50072250091
:10087000FA2700FAA880FA8800722B00F88F808B84
:10088000E8808BE800F88D80F82080F90F80F9CFA0
:1008900080722700FA8400722740FA85804AA900F6
:1008A00083E800F02F00E06E00F0EF00D88D80C0EC
:1008B000EC009AAC8003E880C081808BE0004204A9
:1008C00000082080020400312380F92300312480B5
:1008D000312F8031628023EA00255380F9038002A2
:1008E000E00006E000F8428003E0007987803903E9
:1008F000803123007D23003127C078840029400007
:1009000043E40070270060660070670048C480748C
:10091000578059E68023E8800360008BE200610C79
:10092000000011241FBECFEFD8E0DEBFCDBF11E025
:10093000A0E0B1E0E2E0FCE102C005900D92A2313E
:10094000B107D9F723E0A2E1B1E001C01D92AA30BE
:10095000B207E1F70E94C4040C94FF0D0C94000050
:100960008EBD0DB407FEFDCF08952A9808952A9AEA
:10097000089584B18C6284B90E94B70424982C9A9B
:100980008CB580658CBD08950E94BD06CFE20E94A3
:10099000280782EC95E00E94620721E042E051E0E6
:1009A00064E18FE00E949D080E9406072FEF87EA0E
:1009B00091E6215080409040E1F700C000000E9485
:1009C000280780E098E00E94620721E042E051E0C1
:1009D00065E188E10E949D080E9406072FEF87EAE3
:1009E00091E6215080409040E1F700C000000E9455
:1009F000280786E894E00E94620721E04CE051E07D
:100A000060E18CE00E949D080E9406072FEF87EAB4
:100A100091E6215080409040E1F700C000000E9424
:100A2000280780E692E00E94620721E04CE051E056
:100A30006CE087E00E949D080E9406072FEF87EA7E
:100A400091E6215080409040E1F700C000000E94F4
:100A5000280782EC95E00E94620721E042E051E025
:100A600064E18FE00E949D080E9406072FEF87EA4D
:100A700091E6215080409040E1F700C0000081E005
:100A80000E94F1062FEF87EA91E6215080409040C6
:100A9000E1F700C0000080E00E94F1062FEF87EA36
:100AA00091E6215080409040E1F700C0000021E035
:100AB00044E560E180E00E94D10821E044E560E285
:100AC00080E00E94D10821E040E160E180E00E94E6
:100AD000F50821E040E160E183E50E94F5080E940D
:100AE00006072FEF87EA91E6215080409040E1F71A
:100AF00000C00000E12C00E020E243E560E180E07E
:100B00000E94740A0E9406072FEF87EA91E621509F
:100B100080409040E1F700C000000E9428070E943A
:100B20000607D0E001E02C2F4D2F60E080E00E940E
:100B30001909DB5FD535B1F70E9406072FEF87EA69
:100B400091E6215080409040E1F700C000000E94F3
:100B50002807D0E001E020E04D2F6C2F80E00E94BC
:100B60001909DB5FD535B1F70E9406072FEF87EA39
:100B700091E6215080409040E1F700C000000E94C3
:100B80002807D0E001E02C2F4D2F60E083E50E9484
:100B90001909DB5FD535B1F70E9406072FEF87EA09
:100BA00091E6215080409040E1F700C000000E9493
:100BB0002807D0E001E020E04D2F6C2F83E50E9454
:100BC0001909DB5FD535B1F70E9406072FEF87EAD9
:100BD00091E6215080409040E1F700C000000E9463
:100BE0002807D7E1C12CD12CB6010D2C000C880BA5
:100BF000990B0E94060D2AE939E949ED5FE30E944D
:100C0000920D4B015C01FC2EFD1A20E030E048E221
:100C100052E40E94F70B0E94D50C162FA5019401F7
:100C200060E070E088E292E40E94F60B0E94D50C2E
:100C3000862FE12C01E02F2D412F6D2F0E94740A89
:100C40000E94060722E0C20ED11CD250DF3F61F69F
:100C50008FEF97EA21E6815090402040E1F700C0F5
:100C60000000EE24E3942C2F43E560E080E00E9436
:100C7000740A0E9406078FEF97EA21E681509040A0
:100C80002040E1F700C000000E942807D0E000E00B
:100C900021E04D2F67E189E20E94CF0A0E940607FA
:100CA000DE5FD831A1F78FEF97EA21E681509040BF
:100CB0002040E1F700C0000001E021E047E167E1EA
:100CC00089E20E94CF0A0E9406078FEF97EA21E689
:100CD000815090402040E1F700C0000020E042E059
:100CE00051E064E18FE00E949D080E9406078FEFAB
:100CF00097EA21E6815090402040E1F700C00000D3
:100D00000E94280700E324E548E650E060E080E028
:100D10000E94680B0E9406078FEF97EA21E6815038
:100D200090402040E1F700C0000031CECF93DF9328
:100D3000D82FC62F0E94B504C11102C0299808C03F
:100D4000C13011F4299A04C00E94B70480E006C0A3
:100D50008D2F0E94B0040E94B70481E0DF91CF91F3
:100D6000089528982FEF81EE94E021508040904024
:100D7000E1F700C00000289A08950E94B90484B1E8
:100D8000836084B90E94B10660E081E20E94960609
:100D9000982F882321F160E085EB0E949606982F1A
:100DA0008823E9F060E087E00E949606982F882368
:100DB000B1F060E083E10E949606982F882379F0D5
:100DC00060E080E20E949606982F882341F060E060
:100DD0008CE00E94960691E0811101C090E0892F7D
:100DE0000895882349F060E08DE00E94960691E026
:100DF00081110AC090E008C060E08CE00E94960675
:100E000091E0811101C090E0892F0895CF93DF9385
:100E100060E080E80E9496068823B9F060E080E4F4
:100E20000E949606882389F0C0E0D0E0FE01EE5EC5
:100E3000FE4F808161E00E949606882331F0219662
:100E4000C83F81E0D80791F781E0DF91CF91089505
:100E500080E090E0FC01EE5EFE4F10820196883F3C
:100E600021E09207B9F70895843558F5603348F5C5
:100E7000262F26952695269590E034E5239F800D14
:100E8000911D11246770442371F0FC01EE5EFE4F4A
:100E9000208181E090E002C0880F991F6A95E2F7F7
:100EA000822B80830895FC01EE5EFE4F208181E05D
:100EB00090E002C0880F991F6A95E2F7809582231F
:100EC00080830895909301018093000108952F92EB
:100ED0003F924F925F926F927F928F929F92AF92CA
:100EE000BF92CF92DF92EF92FF920F931F93CF9317
:100EF000DF93CDB7DEB729970FB6F894DEBF0FBEEC
:100F0000CDBF8D836983722EC0900001D090010106
:100F1000F6019491319604913196E491802F877077
:100F200009F07FC0292F30E03C832B83B901069F55
:100F30009001079F300D1124332314F4295F3F4F94
:100F4000B90175956795759567957595679550E0A5
:100F50004E1B5109649F9001659F300D749F300DA9
:100F600011242C5F3F4F069506950695802E912CF7
:100F7000181419040CF0C8C0E92FF0E0FF83EE83C9
:100F8000C20ED31E2980A12CB12C9F013A83298344
:100F900044244394312C39C0F801849190E00884B2
:100FA00002C0959587950A94E2F780FF06C0472D09
:100FB000662D852D0E94340707C0442D7110432DE6
:100FC000662D852D0E943407288539852F5F3F4F78
:100FD00039872887639428303105F1F653940F5FE1
:100FE0001F4FE016F10621F0622C19861886D4CF27
:100FF0003FEFA31AB30A48E0240E6E817F81C60E2C
:10100000D71EA814B90409F47FC08B819C811816DF
:10101000190674F7E980FA80EC0CFD1C86015D80EE
:10102000E3CF892E912C10E0809E9001819E300D9F
:10103000909E300D1124332314F4295F3F4F3595D2
:1010400027953595279535952795842F90E08E1B0C
:101050009109289F7001299FF00C389FF00C1124F2
:1010600094E0E90EF11CF601EE0DFF1D44901814FA
:1010700019040CF43BC048C059801C821B82842D8B
:1010800090E0062C02C0959587950A94E2F780FFC0
:1010900006C0472D652D832D0E94340707C0422DC1
:1010A000711040E0652D832D0E9434076A946620FC
:1010B0005CF4EFEFEE1AFE0AF601EE0DFF1D449010
:1010C0000F2EF7E06F2EF02D2B813C812F5F3F4FCD
:1010D0003C832B8353940217130789F63FEFA31A1F
:1010E000B30A33948A149B0451F40EC03D80A12CA2
:1010F000B12C0F2EF7E06F2EF02D22242394101622
:1011000011060CF4B9CFEACF29960FB6F894DEBFDA
:101110000FBECDBFDF91CF911F910F91FF90EF9048
:10112000DF90CF90BF90AF909F908F907F906F9007
:101130005F904F903F902F900895CF92DF92EF9263
:10114000FF920F931F93CF93DF93E0910001F091F3
:101150000101D491DA010D900020E9F71197A41B49
:10116000B50BBB271A161B069CF4C22ED62E8A017D
:101170007A01EA0EFB1EC82FF80141918F012C2D38
:101180006D2D8C2F0E946707CD0F0E151F05A1F73F
:10119000DF91CF911F910F91FF90EF90DF90CF9053
:1011A0000895DF92EF92FF920F931F93CF93DF93F7
:1011B000E42EF12C1E141F0484F4D22ED62FC82F37
:1011C00000E010E04D2D6D2F8C2F0E9434070F5F33
:1011D0001F4FCF5F0E151F05A9F7DF91CF911F910C
:1011E0000F91FF90EF90DF900895DF92EF92FF92C2
:1011F0000F931F93CF93DF93E42EF12C1E141F0443
:1012000084F4D22ED82FC62F00E010E04D2D6C2F85
:101210008D2F0E9434070F5F1F4FCF5F0E151F05E4
:10122000A9F7DF91CF911F910F91FF90EF90DF9081
:1012300008954F925F926F927F928F929F92AF929A
:10124000BF92CF92DF92EF92FF920F931F93CF93B3
:10125000DF9300D000D01F92CDB7DEB7A82E162F97
:10126000542EB22E481728F4122FB62E8A2DA42EF3
:10127000582EB11630F4812F1B2DB82E8A2DA52C97
:10128000582E1B110DC05A1418F48A2DA52C582E57
:10129000452D4A19202F612F8A2D0E94D1080EC199
:1012A000A5100DC0B11618F4812F1B2DB82E4B2D93
:1012B000411B202F612F8A2D0E94F508FFC0652C4D
:1012C000712C6301CA18D1088B2C912C812F90E0CE
:1012D0009A8389837401E81AF90A9601DD2024F4BF
:1012E000222733272C193D09C701FF2024F4882722
:1012F00099278E199F09821793070CF06CC0B701CC
:10130000FF0C880B990B0E94060D69837A838B83EF
:101310009C83B601DD0C880B990B0E94060D9B0186
:10132000AC0169817A818B819C810E94630C698305
:101330007A838B839C83612F70E080E090E00E9431
:10134000040D6B017C015A1450F5AD820A2C000C7F
:10135000BB08A614B7040CF4B1C020E030E040E0B4
:101360005FE3C701B6010E94F70B0E94D50C402F26
:101370008D810E94340729813A814B815C81C701AC
:10138000B6010E94F60B6B017C019D8191509D83FB
:10139000892F990F990B86159705FCF68FC020E0D1
:1013A00030E040E05FE3C701B6010E94F70B0E9406
:1013B000D50C402F8A2D0E94340729813A814B8118
:1013C0005C81C701B6010E94F70B6B017C01A394FD
:1013D0005A1428F773C0B601DD0C880B990B0E94D4
:1013E000060D2B013C01B701FF0C880B990B0E94E5
:1013F000060D9B01AC01C301B2010E94630C2B01DD
:101400003C016A2D70E080E090E00E94040D6B01C9
:101410007C01B11650F054012FEFA21AB20A898153
:101420009A818A159B055CF149C054019FEFA91A66
:10143000B90A89819A818A159B050CF03FC020E08A
:1014400030E040E05FE3C701B6010E94F70B0E9465
:10145000D50C862F402F6A2D0E943407A3019201DC
:10146000C701B6010E94F70B6B017C0191E0A91A3C
:10147000B10889819A818A159B050CF31FC020E071
:1014800030E040E05FE3C701B6010E94F70B0E9425
:10149000D50C862F402F69810E943407A301920149
:1014A000C701B6010E94F70B6B017C0189819A810B
:1014B00001969A8389838A159B050CF30F900F90F0
:1014C0000F900F900F90DF91CF911F910F91FF9090
:1014D000EF90DF90CF90BF90AF909F908F907F90D4
:1014E0006F905F904F900895AF92BF92CF92DF922E
:1014F000EF92FF920F931F93CF93DF93C82F162F76
:10150000A42EC22E481710F4C42FA82EC11618F40A
:10151000812F1C2DC82EEE20E1F0EC2EF12CB12CE9
:10152000AE14BF048CF1D12CC12FD0E0CC16DD0657
:101530004CF0402F6C2F8E2D0E9434072196CC1634
:10154000DD06BCF78FEFE81AF80AAE14BF0464F7A3
:101550001BC0DA2DDC1B202F4D2F612F8C2F0E94FA
:10156000D108202F4D2F6C2D8C2F0E94D108C11A2D
:10157000202F4C2D612F8C2F0E94F508202F4C2DF1
:10158000612F8A2D0E94F508DF91CF911F910F9155
:10159000FF90EF90DF90CF90BF90AF9008954F9263
:1015A0005F926F927F928F929F92AF92BF92CF92F3
:1015B000DF92EF92FF920F931F93CF93DF93782EDA
:1015C000662ED22F502EC42F11E0141BB62EC62E1D
:1015D000D82EE82EA12C99249394FA2C552001F1B1
:1015E0000D2F6C2F660D262F4D2D8E2D0E94190963
:1015F000662D6C1B262F4D2D8E2D0E9419092C2D2A
:101600004C2E470C442D6C2D872C8C1A882D0E9453
:1016100019092B2D442D6B2D882D0E94190930C0DE
:101620004D2F062D0C0F602F8D2D0E9434074D2F4E
:10163000602F8E2D0E9434074D2F062D0C1B602F1E
:101640008D2D0E9434074D2F602F8E2D0E94340760
:101650004D2F6C2D872C8C0E882D0E9434074D2F1A
:101660006C2D072D0C1B802F0E9434074D2F6B2DE6
:10167000882D0E9434074D2F6B2D802F0E94340738
:10168000112334F48A2D880F180F1D5F892D06C091
:10169000FC1AFF0C1B5F1F0D892DC1509394A3945E
:1016A000EA94D394C394BA94C8170CF096CFDF9100
:1016B000CF911F910F91FF90EF90DF90CF90BF904F
:1016C000AF909F908F907F906F905F904F90089514
:1016D0002F923F924F925F926F927F928F929F9242
:1016E000AF92BF92CF92DF92EF92FF920F931F9330
:1016F000CF93DF9300D01F92CDB7DEB7402E512C91
:10170000141415040CF05CC04A018983262EC12CE8
:10171000D12CA22EB12C66246394712CC601877043
:101720009078992324F40197886F9F6F01961A147B
:101730001B040CF03DC0730102C0EE0CFF1C8A9527
:10174000E2F7C601DD200CF40796959587959595EF
:101750008795959587958A9D80018B9D100D9A9D03
:10176000100D1124C401800F911F9B838A830A0DE1
:101770001B1D080D191D3980EA81FB81849190E0C1
:101780008E219F21892B31F041E0622D832D0E9413
:10179000340705C040E0622D832D0E9434078A8102
:1017A0009B8101969B838A8333948017910721F74D
:1017B0009FEFC91AD90A2394C414D50409F0AECFF7
:1017C0000F900F900F90DF91CF911F910F91FF908D
:1017D000EF90DF90CF90BF90AF909F908F907F90D1
:1017E0006F905F904F903F902F9008955058BB2777
:1017F000AA270E940E0C0C94580D0E944A0D38F036
:101800000E94510D20F039F49F3F19F426F40C94F6
:10181000470D0EF4E095E7FB0C94410DE92F0E9473
:10182000690D58F3BA17620773078407950720F00C
:1018300079F4A6F50C948B0D0EF4E0950B2EBA2FCF
:10184000A02D0B01B90190010C01CA01A0011124C6
:10185000FF27591B99F0593F50F4503E68F11A1672
:10186000F040A22F232F342F4427585FF3CF469503
:1018700037952795A795F0405395C9F77EF41F1625
:10188000BA0B620B730B840BBAF09150A1F0FF0FEF
:10189000BB1F661F771F881FC2F70EC0BA0F621FDB
:1018A000731F841F48F4879577956795B795F795CB
:1018B0009E3F08F0B0CF9395880F08F09927EE0F60
:1018C0009795879508950E94770C0C94580D0E9467
:1018D000510D58F00E944A0D40F029F45F3F29F065
:1018E0000C94410D51110C948C0D0C94470D0E94D9
:1018F000690D68F39923B1F3552391F3951B550BAB
:10190000BB27AA2762177307840738F09F5F5F4FD2
:10191000220F331F441FAA1FA9F335D00E2E3AF011
:10192000E0E832D091505040E695001CCAF72BD029
:10193000FE2F29D0660F771F881FBB1F261737077A
:101940004807AB07B0E809F0BB0B802DBF01FF27AC
:1019500093585F4F3AF09E3F510578F00C94410D3B
:101960000C948C0D5F3FE4F3983ED4F38695779505
:101970006795B795F7959F5FC9F7880F911D969565
:10198000879597F90895E1E0660F771F881FBB1FC1
:10199000621773078407BA0720F0621B730B840B6E
:1019A000BA0BEE1F88F7E09508950E94710D88F03C
:1019B0009F5798F0B92F9927B751B0F0E1F0660F13
:1019C000771F881F991F1AF0BA95C9F714C0B13054
:1019D00091F00E948B0DB1E008950C948B0D672F50
:1019E000782F8827B85F39F0B93FCCF38695779583
:1019F0006795B395D9F73EF490958095709561956C
:101A00007F4F8F4F9F4F0895E89409C097FB3EF496
:101A100090958095709561957F4F8F4F9F4F99233B
:101A2000A9F0F92F96E9BB279395F69587957795B9
:101A30006795B795F111F8CFFAF4BB0F11F460FF79
:101A40001BC06F5F7F4F8F4F9F4F16C0882311F0D1
:101A500096E911C0772321F09EE8872F762F05C0E5
:101A6000662371F096E8862F70E060E02AF09A9580
:101A7000660F771F881FDAF7880F9695879597F975
:101A8000089597F99F6780E870E060E008959FEF00
:101A900080EC089500240A94161617061806090605
:101AA000089500240A9412161306140605060895D4
:101AB000092E0394000C11F4882352F0BB0F40F45C
:101AC000BF2B11F460FF04C06F5F7F4F8F4F9F4F9C
:101AD000089557FD9058440F551F59F05F3F71F01E
:101AE0004795880F97FB991F61F09F3F79F0879585
:101AF0000895121613061406551FF2CF4695F1DF0E
:101B000008C0161617061806991FF1CF869571059D
:101B1000610508940895E894BB2766277727CB01D1
:101B200097F908950E94A50D0C94580D0E944A0D36
:101B300038F00E94510D20F0952311F00C94410DC6
:101B40000C94470D11240C948C0D0E94690D70F3B8
:101B5000959FC1F3950F50E0551F629FF001729F52
:101B6000BB27F00DB11D639FAA27F00DB11DAA1F61
:101B7000649F6627B00DA11D661F829F2227B00DAE
:101B8000A11D621F739FB00DA11D621F839FA00D39
:101B9000611D221F749F3327A00D611D231F849F89
:101BA000600D211D822F762F6A2F11249F575040E0
:101BB0009AF0F1F088234AF0EE0FFF1FBB1F661F5B
:101BC000771F881F91505040A9F79E3F510580F024
:101BD0000C94410D0C948C0D5F3FE4F3983ED4F3CC
:101BE000869577956795B795F795E7959F5FC1F7C8
:101BF000FE2B880F911D9695879597F90895F89477
:021C0000FFCF14
:101C0200C2054E4F4B4941353131300039392D39FA
:021C1200390097
:00000001FF
